:020000040800F2
:1000000000100020C52F00084D2B00084F2B0008C2
:1000100000000000000000000000000000000000E0
:10002000000000000000000000000000512B00084C
:100030000000000000000000532B0008552B0008B2
:1000400015300008000000001530000815300008C9
:100050001530000815300008153000085D2B000829
:1000600000000000153000081530000815300008A9
:1000700015300008712B0008153000080000000042
:1000800015300008000000000000000015300008D6
:100090000000000015300008153000081530000879
:1000A00000000000153000080000000015300008B6
:1000B0000000000000000000000000000000000040
:1000C00010B5064C2378002B07D1054B002B02D02E
:1000D000044800E000BF0123237010BD7800002019
:1000E00000000000CC380008044B10B5002B03D0F2
:1000F0000349044800E000BF10BDC04600000000F6
:100100007C000020CC380008002243088B4274D3C6
:1001100003098B425FD3030A8B4244D3030B8B4208
:1001200028D3030C8B420DD3FF22090212BA030C11
:100130008B4202D31212090265D0030B8B4219D3F2
:1001400000E0090AC30B8B4201D3CB03C01A524112
:10015000830B8B4201D38B03C01A5241430B8B425A
:1001600001D34B03C01A5241030B8B4201D30B0343
:10017000C01A5241C30A8B4201D3CB02C01A52416A
:10018000830A8B4201D38B02C01A5241430A8B422D
:1001900001D34B02C01A5241030A8B4201D30B0216
:1001A000C01A5241CDD2C3098B4201D3CB01C01A30
:1001B000524183098B4201D38B01C01A524143093A
:1001C0008B4201D34B01C01A524103098B4201D328
:1001D0000B01C01A5241C3088B4201D3CB00C01A95
:1001E000524183088B4201D38B00C01A524143080D
:1001F0008B4201D34B00C01A5241411A00D2014632
:10020000524110467047FFE701B5002000F006F8A4
:1002100002BDC0460029F7D076E770477047C04658
:10022000012800D07047064B9942FBD1054B1B8833
:10023000054A9918054A11605B185360F2E7C046F9
:10024000FFFF000000000020E0FFBAAB9400002098
:1002500070B580219025ED058901280000F000FE91
:100260000A4C20718021C901280000F0F9FD60715D
:100270000423E356400003435BB2A07980000343AC
:100280005BB2E279D2001343237270BD00000020FC
:10029000F0B585B0642000F001F902F0EDF95D4B96
:1002A000186802F089F902F0E1F90A2000F0F6F886
:1002B000594B1988594802F061FD01AD280002F040
:1002C00010FA6B7819028022520011402A781143EB
:1002D00064244C43524AA2185C1001263440013475
:1002E0005443504802F04AFD21004F4802F046FDB9
:1002F0004E4802F043FD6978490931404C4802F00C
:100300003DFD6978090931404A4802F037FD4A4805
:1003100002F034FD642000F0C1F80024022C15D84E
:10032000464800F09BFA0021444800F0E9FA002812
:10033000F9D1424D280000F0E1FB280000F040FB1D
:10034000280000F0BBFA0134E4B2E7E700240026FD
:100350000025092C1BD8394800F080FA00213748C5
:1003600000F0CEFA0028F9D1344F380000F0C6FB77
:10037000380000F025FB01003148FFF7C5FE0500FD
:100380003618380000F09AFA0134E4B2E1E70A21A5
:100390003000FFF7B9FE84B229002A4802F0EEFCD3
:1003A0001D4B1B8822000121274802F087FD15E024
:1003B0000E2B06D0184B1B7A0E2B1AD1FFF748FFD5
:1003C000F8E7154B1988204802F0F0FC1F4802F0AE
:1003D000D5FCEFE702F09EFC02F04CFCFFF738FF83
:1003E00002F070F90A2000F059F80B4B1B7A002B31
:1003F000DED102F063F9012000F050F80023032B56
:10040000E8D8054AD118012008710F211172013373
:10041000DBB2F4E794000020000000202839000837
:100420000072060034390008403900084C390008D1
:100430005039000868390008F0390008AC00002085
:10044000CD1C4A007C390008E0FFBAAB88390008AF
:1004500010B502490120FFF7E3FE10BDFFFF0000C9
:1004600010B5064A136810210B431360002002F0F8
:1004700027FB02F0FBFA002010BDC046002002401E
:10048000024A1368013313607047C046A800002079
:10049000014B18687047C046A800002030B583B0F3
:1004A0000190FFF7F5FF0500019C631C00D00134AB
:1004B000FFF7EEFF401BA042FAD303B030BD70B58A
:1004C000040003689A68520721D59A68520706D536
:1004D0009A68920703D49A6810210A439A60FFF73A
:1004E000D7FF050023689B685B070ED5FFF7D0FF99
:1004F000401B0228F6D9636C102213436364A36C7B
:100500000F3A1343A364012002E0002000E0002022
:1005100070BD70B504000268916803230B40012B85
:1005200001D0002070BD1368DB0702D4D3681B0420
:100530002DD5916805230B40012B09D0636C102247
:1005400013436364A36C0F3A1343A3640120E9E7E8
:10055000936802210B439360236803221A60FFF71C
:1005600097FF050023689B68DB070ED5FFF790FF18
:10057000401B0228F6D9636C102213436364A36CFA
:100580000F3A1343A3640120CCE70020CAE7002000
:10059000C8E7000030B583B004000023019303686E
:1005A000996803220A40012A0ED09968204A114214
:1005B00012D19A6801210A439A601E4B18681E499D
:1005C000FFF7A2FD019015E01A68D2072DD4DA6872
:1005D0001204EAD5002008E0636C10221343636420
:1005E000A36C0F3A1343A364012003B030BD019BF9
:1005F000013B0193019B002BF9D1FFF749FF050057
:1006000023681B68DB070ED4FFF742FF401B02285C
:10061000F6D9636C102213436364A36C0F3A13433F
:10062000A3640120E1E70020DFE70020DDE7C0460A
:10063000170000800C00002040420F0070B5041E1F
:1006400000D1B0E0436C002B7DD0636CDB0600D59D
:10065000A3E021688B6804221A4000D09DE0636CFF
:10066000524803400630FF30034363648868032325
:100670000340012B6DD0CB6818208343A06803434F
:10068000CB6021680B699B009B08606803430B618A
:100690002168CB6846480340CB60A3699B03E169AE
:1006A000C9030B43216A48030343606B012857D0F9
:1006B000802040010343E06803432069022851D0B1
:1006C0001343226B52001343626A012A4CD0A26A80
:1006D000C221FF318A4202D0E16A0A4313432168F2
:1006E000CA681A43CA60A26B802149058A420DD0AC
:1006F000012A0BD0022A09D0032A07D0042A05D0E8
:10070000052A03D0062A01D0072A0AD120684169A8
:1007100007229143416120684169A56B2A400A4341
:1007200042612268D26823490A409A422BD0636C06
:1007300012229343023A13436364A36C0F3A1343A8
:10074000A36401202EE083644022835402F01AF84F
:100750007BE70B68DB079BD4CB681B0498D48AE744
:100760001000A7E70422ABE7002903D18022520240
:100770001343ACE7626C20210A436264A26C1F3908
:100780000A43A264A3E70023A364636C0322934398
:10079000023A13436364002004E0636C10221343A5
:1007A0006364012070BD0120FCE7C046FDFEFFFF31
:1007B0001902FEFFE7FF3F8370B5041E43D0436C70
:1007C000022213434364FFF77AFE051E06D0012D73
:1007D0000DD140230022E254280070BD2000FFF715
:1007E00098FE05000128F2D001236364EFE7216839
:1007F0004B689F2293434B6023681A602268D3683A
:1008000012490B40D360226813699B009B08136157
:100810002268536907218B4353612268136A0C498C
:100820000B4013622268936ADB0CDB049362094A73
:10083000136809490B401360200001F0B9FF002341
:10084000A3646364C5E70125C6E7C04600023E8392
:1008500000F000F008270140FFFF3FFF10B5040043
:1008600003689B685B0723D44023C35C012B21D022
:1008700040230122C254C369012B14D10020636CB0
:100880000D4A1A4080235B00134363640023A36472
:100890004022A3542368243A1A60226893680421F2
:1008A0000B43936010BDFFF775FE0028E7D0F9E712
:1008B0000220F7E70220F5E7FEF0FFFF10B5040085
:1008C0004023C35C012B17D040230122C254FFF701
:1008D000F6FD002803D040230022E25410BD200082
:1008E000FFF717FE0028F6D1636C044A1340043268
:1008F000FF3213436364EEE70220EFE7FEFEFFFFE3
:10090000F8B504000E004569082D04D00368DB68C3
:10091000DB0719D40C25FFF7BBFD070023681A6815
:1009200015421AD1731CF9D0002E04D0FFF7B0FD88
:10093000C01BB042F2D9636C0422134363644023AA
:100940000022E254032007E0436C20221343436457
:1009500040230022C2540120F8BD616C8022920025
:100960000A436264D968C0221201114213D1226A7B
:10097000002A10D11A6812070DD59A68520712D4AE
:100980005A680C218A435A60636C0C4A1340043243
:10099000FF3213436364A369002B0DD123680C223B
:1009A0001A600020D8E7636C202213436364A36CB1
:1009B0001F3A1343A364EEE70020CDE7FEFEFFFFDE
:1009C0000368186C7047000030B583B00400002342
:1009D00001934033C35C012B00D181E0402301220D
:1009E000C25403689A68520770D43E4A48689042DD
:1009F00053D09A6A01200D68A84002439A62A36B03
:100A00008022520593421ED0012B1CD0022B1AD0FB
:100A1000032B18D0042B16D0052B14D0062B12D084
:100A2000072B10D02268506907230340886898423A
:100A300009D05069072398435061206842698D6846
:100A40002B40134343610B681A00103A012A01D965
:100A5000002040E0244A1268102B09D08023DB03D9
:100A60001343214A13600B68102B04D0002032E09E
:100A700080231B04F4E71D4B18681D49FFF744FB56
:100A8000830018184300019302E0019B013B01938E
:100A9000019B002BF9D100201DE09A6A01200D680E
:100AA000A84082439A620B681A00103A012A01D9C1
:100AB000002010E00C4A1268102B05D00D4B13409B
:100AC000094A1360002006E00B4BF8E7436C202234
:100AD00013434364012040230022E25403B030BD9D
:100AE0000220FBE701100000082701400C00002055
:100AF00040420F00FFFFBFFFFFFF7FFF406C7047CA
:100B000070B5002811DB8408134DC034A40062596D
:100B100003231840C000FC331E008640B243890105
:100B20000B4083401343635170BDC0B20F2202409B
:100B3000083A920806329200084BD3185D680324E5
:100B40002040C000FF2214008440A54389010A40D0
:100B500082402A435A60E7E700E100E000ED00E050
:100B60001F2318401E3B8340014A13607047C04654
:100B700000E100E001380A4B98420FD8094A506062
:100B80000948036A1B021B0AC02109060B430362C2
:100B90000023936007331360002070470120FCE7B7
:100BA000FFFFFF0010E000E000ED00E0042805D0AA
:100BB000054A136804218B4313607047024A136887
:100BC00004210B431360F8E710E000E0704710B514
:100BD000FFF7FCFF10BD0000F0B5C64600B582B0BF
:100BE000002338E0032600E00026AE4035003D43F8
:100BF0000234A400554EA551554C25684246D443B5
:100C00002E0026404A68D20302D5424615432E00E4
:100C10004F4D2E606D682E0026404A68920302D523
:100C2000424615432E004A4D6E60AD682E002640A8
:100C30004A68D20202D5424615432E00444DAE60AA
:100C4000ED682C404A68920202D542462A431400BD
:100C50003F4AD46001330A681400DC4071D001259A
:100C60009D402A409046F5D04C68022C01D0122CB1
:100C70000ED1DC080834A400275807261E40B60011
:100C80000F22B24097430A69B24016003E432650F5
:100C900002685F0003242600BE40F64332409446BB
:100CA0004A681440BC406246144304604C68621EAB
:100CB000012A03D9112C01D0122C10D184683440A0
:100CC000A446CC68BC406246144384604468AC438C
:100CD0004A681209012515409D4025434560C468B6
:100CE00026408C68BC403443C4604A68D200B1D509
:100CF000184DAE6901242643AE61AD692C400194C4
:100D0000019C9C08A51CAD00104EAF5903251D4049
:100D1000AD000F26AE40B7439026F605B04200D195
:100D200062E70D4EB04208D00C4EB04207D00C4ED8
:100D3000B04200D156E7052657E7012655E70226BF
:100D400053E702B004BC9046F0BDC046000001402D
:100D50000004014000100240000400480008004860
:100D6000000C0048F0B5D6464F464646C0B50023B5
:100D700006E0032500E000259540A5424AD0013356
:100D80000A00DA405DD001229A400F001740BA46AF
:100D9000F5D005685E0003242700B740FE43B44643
:100DA00035400560DE080836B6003558A9460725E7
:100DB0001D40AD000F27B846AF403D004F46AF4342
:100DC000375085686646354085604568954345607F
:100DD000C2683240C2609E08B51CAD001B4AAD58C7
:100DE00022001A40920044469440A0462C40902590
:100DF000ED05A842BFD0164DA84207D0154DA84218
:100E000006D0154DA842B4D00525B5E70125B3E7B6
:100E10000225B1E70D4DB21C920054594646B44329
:100E200054510E4C25685246D243154025606568E2
:100E300015406560A5681540A560E5682A40E26038
:100E40009DE71CBC90469946A246F0BD00000140BB
:100E50000004004800080048000C0048000401405D
:100E600003690B4201D1002070470120FCE7002AF2
:100E700001D1816270478161FCE7704710B5054B75
:100E80005B69184200D110BD024B5861FFF7F5FFB6
:100E9000F9E7C0460004014010B50C4A136803246A
:100EA000A343184310600A4A1369042003431361E3
:100EB000012908D040BF20BF20BF054A1369042183
:100EC0008B43136110BD30BFF7E7C0460070004090
:100ED00000ED00E070B582B004000368DB0726D5A2
:100EE000AE4B5A680C231340042B18D0AB4B5A68F6
:100EF0000C231340082B0ED06368012B3CD0002B31
:100F000051D1A64B1A68A6490A401A601A68A54929
:100F10000A401A6036E0A14B5B68DB03ECD59F4BBF
:100F20001B689B0303D56368002B00D1ECE12368A9
:100F30009B0773D5994B5B680C221A425DD0974B87
:100F40005A680C231340082B53D0E368002B00D1C0
:100F500086E0924A136801210B431360FFF798FA69
:100F600005008E4B1B689B0771D4FFF791FA401B5D
:100F70000228F6D90320CAE1884A116880235B025F
:100F80000B4313606368002B25D0FFF781FA05003F
:100F9000824B1B689B03CAD4FFF77AFA401B642874
:100FA000F6D90320B3E1052B09D07C4B1A687C49A4
:100FB0000A401A601A687B490A401A60E2E7774BD8
:100FC00019688022D2020A431A60196880225202EC
:100FD0000A431A60D6E7FFF75BFA05006F4B1B6800
:100FE0009B03A4D5FFF754FA401B6428F6D90320CD
:100FF0008DE16A4B5B68DB03A7D4684B1B689B07DA
:1010000004D5E368012B01D0012080E163490B681E
:10101000F82293432269D20013430B6023681B0715
:1010200044D5E369002B2ED05C4A536A01210B435F
:101030005362FFF72DFA0500584B5B6A9B0735D4C6
:10104000FFF726FA401B0228F6D903205FE1534937
:101050000B68F82293432269D20013430B60DDE74B
:101060004E4A136801218B431360FFF711FA050004
:101070004A4B1B689B07D1D5FFF70AFA401B022891
:10108000F6D9032043E1454A536A01218B43536259
:10109000FFF7FEF90500414B5B6A9B0706D5FFF79A
:1010A000F7F9401B0228F6D9032030E123685B07DB
:1010B00000D47FE0394BDB69DB001DD4374AD169AE
:1010C000802040050143D161D36903400193019B16
:1010D0000125354B1B68DB0510D5A368012B21D0FA
:1010E000002B36D12D4B1A6A01218A431A621A6AE3
:1010F00003318A431A621AE00025EAE72A4A116896
:1011000080235B000B431360FFF7C2F90600264BF8
:101110001B68DB05E1D4FFF7BBF9801B6428F6D917
:101120000320F4E01D4A136A01210B431362A368F4
:10113000002B24D0FFF7ACF90600184B1B6A9B0765
:1011400036D4FFF7A5F9801B184B9842F5D9032038
:10115000DDE0052B09D0114B1A6A01218A431A627E
:101160001A6A03318A431A62E1E70C4B1A6A0421B6
:101170000A431A621A6A03390A431A62D7E7FFF769
:1011800087F90600054B1B6A9B0711D5FFF780F90D
:10119000801B064B9842F5D90320B8E000100240AE
:1011A000FFFFFEFFFFFFFBFF007000408813000001
:1011B000012D33D02368DB0610D56369012B33D0B2
:1011C000053351D1544A536B04218B435363536B02
:1011D000F4318B43A169C9000B435363236A002B8D
:1011E00000D193E04C4A51680C220A40082A00D1F1
:1011F0008FE0022B4FD0484A136848490B401360D8
:10120000FFF746F90400444B1B689B017AD5FFF7B2
:101210003FF9001B0228F6D9032078E03E4AD36943
:101220003F490B40D361C5E73B4B5A6B04210A434E
:101230005A635A6B03390A435A63FFF729F90500C9
:10124000354B5B6B9B0706D4FFF722F9401B022846
:10125000F6D903205BE030494B6BF8229343A26937
:10126000D20013434B63B9E72B4B5A6B04210A435B
:101270005A635A6B03398A435A63FFF709F9050029
:10128000254B5B6B9B07A9D5FFF702F9401B022892
:10129000F6D903203BE0204A136820490B40136035
:1012A000FFF7F6F805001C4B1B689B0106D5FFF7FE
:1012B000EFF8401B0228F6D9032028E0164BDA6A23
:1012C0000F218A43E16A0A43DA625A6815490A40E3
:1012D000A16A606A01430A435A6019688022520475
:1012E0000A431A60FFF7D4F804000B4B1B689B01FC
:1012F00006D4FFF7CDF8001B0228F6D9032006E03C
:10130000002004E0002002E0012000E0002002B004
:1013100070BD0120FBE7C04600100240FFFFFFFE4A
:10132000FFFFFFEFFFFFC2FF30B589B004AA174BE4
:10133000180032C832C2110002680A606A461033CF
:1013400013CB13C21B681360114B5A680C23134054
:10135000082B19D1910C0733194004A8445C0C499F
:10136000C96A0B406946C95CD30308D463011B1BDF
:101370009801C01AC0000419200209B030BD054808
:10138000FEF7C2FE6043F8E70248F6E7E4380008DB
:101390000010024000127A0070B505000C004D4BA1
:1013A0001A68012313408B420BD24A490B68012271
:1013B000934323430B600B681A40A24201D00120E3
:1013C00070BD2B689B0706D5434A5368F0218B43B9
:1013D000A9680B4353602B68DB074BD56B68012B67
:1013E00020D0022B24D03C4A126892076FD53A498C
:1013F0004A680320824313434B60FFF749F8060015
:101400006B68012B1AD0022B26D0334B5B680C2261
:101410001A422FD0FFF73CF8801B304B9842F4D98A
:101420000320CDE72C4A12689203E0D40120C7E7DD
:10143000294A12689201DAD40120C1E7264B5A6882
:101440000C231340042B15D0FFF722F8801B234BED
:101450009842F3D90320B3E71F4B5A680C2313407B
:10146000082B07D0FFF714F8801B1C4B9842F3D9C8
:101470000320A5E7174B1A6801231340A3420BD999
:1014800014490B680122934323430B600B681A40F5
:10149000A24201D0012093E72B685B0706D50E4AD4
:1014A00053680F490B40E9680B435360FFF73CFF5B
:1014B000094B5A6812090F2313400A4AD35CD840DB
:1014C000094B1860002001F0FBFA002078E70120AA
:1014D00076E7C0460020024000100240881300005A
:1014E000FFF8FFFF103900080C000020014B1868BE
:1014F0007047C0460C00002010B5FFF7F7FF044B03
:101500005A68120A07231340024AD35CD84010BD20
:10151000001002402039000810B5072303600A4B71
:101520005C680322224042605C68F02222408260B4
:101530005B68E022D2001340C360044B1A680123A9
:1015400013400B6010BDC046001002400020024056
:1015500070B582B004000368DB0335D53C4BDB6912
:10156000DB0048D43A4AD169802040050143D1616B
:10157000D36903400193019B0125364B1B68DB05B2
:101580003BD5334B1B6AC0229200134013D06168D5
:101590000A409A420FD02E4B186A2F4A02401E6A08
:1015A0008021490231431962196A2C4E3140196277
:1015B0001A62C30735D4264A136A27490B4061686B
:1015C0000B431362012D3BD02368DB0706D5204A6D
:1015D000136B03218B43A1680B43136323689B06A2
:1015E00033D51B4A136B10218B43E1680B43136304
:1015F000002002B070BD0025BFE7164A11688023A5
:101600005B000B431360FEF743FF0600114B1B68A2
:10161000DB05B6D4FEF73CFF801B6428F6D9032017
:10162000E7E7FEF735FF0600094B1B6A9B07C2D4AC
:10163000FEF72EFF801B0A4B9842F5D90320D8E70E
:10164000D36908490B40D361BEE70020D1E7C0460B
:101650000010024000700040FFFCFFFFFFFFFEFF94
:1016600088130000FFFFFFEFF8B506000C0017001D
:101670001D003EE0002D05D0FEF70AFF069BC01AB4
:10168000A84236D332685368E0218B4353608223EB
:101690005B0072689A420CD080239B01B26A9A4226
:1016A00016D05D230122F254013B0022F2540320A4
:1016B00027E0B36880221202934203D08022D20036
:1016C0009342E9D13268136840218B431360E3E70A
:1016D000326813680B490B4013603268116880232D
:1016E0009B010B431360DCE70123BB4208D06B1C5A
:1016F000C0D133689B682340A342F5D00023F4E7B0
:101700000020F8BDFFDFFFFFF0B583B007000C003D
:1017100015001E0001E0731C10D13A689368234045
:10172000AB4245D0C023DB009C42F4D1002DF2D166
:10173000137BDBB26A46D371D379ECE7002E05D078
:10174000FEF7A6FE089BC01AB042E6D33A6853687B
:10175000E0218B43536082235B007A689A420CD06D
:1017600080239B01BA6A9A4216D05D230122FA5463
:10177000013B0022FA5403201BE0BB6880221202C6
:10178000934203D08022D2009342E9D13A68136891
:1017900040218B431360E3E73A68136806490B4026
:1017A00013603A68116880239B010B431360DCE7E8
:1017B000002003B0F0BDC046FFDFFFFF70B582B070
:1017C00004000D001600C02100922B0000224901E8
:1017D000FFF79AFF002818D100962B0000228021E5
:1017E0002000FFF741FF002816D1C02100962B00F2
:1017F0000022C9002000FFF787FF00280AD0236ECF
:10180000202213432366032004E0236E2022134387
:101810002366032002B070BD236E2022134323668B
:101820000320F7E710B5041E5ED0002383625D330A
:10183000C35C002B4CD05D230222E2542268136863
:1018400040218B431360E368E022D200934245D9E4
:101850000022F02109018B4205D0E021C9008B4212
:1018600001D00021A162216B002905D1E021C9002E
:101870008B4236D9022323636368A1680B43216935
:101880000B4361690B4380218900A06901400B4330
:10189000E1690B43216A0B432168A06A03430B6093
:1018A000618B04230B40616A0B43616B0B43E1685E
:1018B0000B43216813434B602268D3690B490B40EB
:1018C000D361002323665D330122E254002010BD62
:1018D0005C330022C25401F08BF8ACE78022520145
:1018E000B7E701232363C7E70120F0E7FFF7FFFF16
:1018F00070B5041E10D05D2502234355026813689D
:1019000040218B43136001F099F80023236663554F
:101910005C22A354002070BD0120FCE7F0B585B027
:1019200004000D0016001F005C23C35C012B00D1D6
:10193000D4E05C230122C254FEF7AAFD01905D238E
:10194000E35C012B08D002205D230122E254013B1D
:101950000022E25405B0F0BD002D00D1B4E0002E0D
:1019600000D1B3E05C330322E25400232366A56375
:10197000A687E68723644132A3520232A35223652D
:10198000E36480231B02A2689A421CD023681A6871
:10199000520603D41A6840210A431A60E023DB0090
:1019A000E2689A4233D96368002B03D0E38F9BB27D
:1019B000012B14D123682A88DA600235E38F013BBA
:1019C0009BB2E3870BE0226811688023DB010B43A5
:1019D0001360DBE7002F00D17AE07B1C0FD1E38F8F
:1019E0009BB2002B58D023689A689207F2D52A88B8
:1019F000DA600235E38F013B9BB2E387EFE7FEF746
:101A000047FD019BC01AB842E9D303209CE76368F5
:101A1000002B03D0E38F9BB2012B21D1E38F9BB22C
:101A2000012B08D923682A88DA600235E38F023B4C
:101A30009BB2E38714E02B7822681373E38F013B9A
:101A40009BB2E38701350BE02A781A73E38F013BE1
:101A50009BB2E387013503E0002F3BD07B1C13D101
:101A6000E38F9BB2002B17D023689A689207F3D5B7
:101A7000E28F92B2012AE7D92A88DA600235E38F31
:101A8000023B9BB2E387EBE7FEF702FD019BC01A26
:101A9000B842E5D3032057E7019A39002000FFF749
:101AA0008DFE002801D020232366A368002B06D1D9
:101AB00003932368DA6803929B680393039B236E66
:101AC000002B09D100203FE701203DE701203BE743
:101AD000032039E7032037E7012035E7022039E703
:101AE000F0B583B004000E0017001D005C23C35C3A
:101AF000012B00D142E15C230122C254FEF7C8FC55
:101B000001905D23E35CDBB26268012B14D082217B
:101B100049008A4208D002205D230122E254013BA1
:101B20000022E25403B0F0BDA268002A00D01BE1FD
:101B3000042B01D00220EFE7002E00D116E1002F88
:101B400000D115E1002D00D114E15D23E35C042BED
:101B500002D05D230522E254002323662764462237
:101B6000A552023AA552A663E587A587E3642365DB
:101B7000E023DB00E2689A4204D84623E35A9BB292
:101B8000012B22D9226853687D490B40536023689A
:101B90001A68520603D41A6840210A431A60E023E7
:101BA000DB00E2689A4252D96368002B03D0E38FCE
:101BB0009BB2012B07D123683288DA600236E38FAB
:101BC000013B9BB2E38701251BE02268516880231B
:101BD0005B010B435360DAE74623E35A9BB2002BC9
:101BE0000CD023689A68D20708D5DB683B8002379F
:101BF0004622A35A013B9BB2A3520125089B013305
:101C00001CD1E38F9BB2002B05D14633E35A9BB224
:101C1000002B00D19AE0002DDED0E38F9BB2002B89
:101C2000DAD023689A689207D6D53288DA6002360D
:101C3000E38F013B9BB2E3870025CDE7FEF728FC4D
:101C4000019BC01A089B9842DBD3032064E76368BA
:101C5000002B03D0E38F9BB2012B0BD1E38F9BB200
:101C6000012B09D923683288DA600236E38F023B00
:101C70009BB2E38701252EE0337822681373E38F4C
:101C8000013B9BB2E3870136F4E732781A73E38FA6
:101C9000013B9BB2E387013600254623E35A9BB202
:101CA000002B15D023689A68D20711D54622A25A74
:101CB00092B2012A37D9DB683B8002374622A35A09
:101CC000023B9BB2A352A35A9BB2012B23D90125FD
:101CD000089B013331D1E38F9BB2002B04D14633F3
:101CE000E35A9BB2002B31D0002DD6D0E38F9BB2AC
:101CF000002BD2D023689A689207CED5E28F92B299
:101D0000012AC2D93288DA600236E38F023B9BB2E5
:101D1000E3870025C1E72268516880235B010B43FC
:101D200053600125D4E71B7B3B704622A35A013B3D
:101D30009BB2A35201370125CAE7FEF7A9FB019B1D
:101D4000C01A089B9842C6D30320E5E6019A089979
:101D50002000FFF733FD002801D020232366236EE7
:101D6000002B09D10020D7E60220D5E60120D3E6DA
:101D70000120D1E60120CFE60120CDE60220D1E608
:101D8000FFEFFFFF70470368DA6801210A43DA605A
:101D9000026813680B431360002070477047704758
:101DA0007047704710B5040003681A6992070FD591
:101DB000DA6892070CD5032252421A610123037795
:101DC00003689B699B0763D0FFF7E9FF0023237734
:101DD00023681A69520712D5DA6852070FD505220F
:101DE00052421A610223237723689A69C0239B0019
:101DF0001A4253D02000FFF7D2FF00232377236835
:101E00001A69120710D5DA6812070DD50922524255
:101E10001A61042323772368DB699B0745D02000E0
:101E2000FFF7BDFF0023237723681A69D20612D576
:101E3000DA68D2060FD5112252421A61082323779D
:101E40002368DA69C0239B001A4235D02000FFF7CF
:101E5000A6FF0023237723681A69D20702D5DA6820
:101E6000D20730D423681A69120602D5DA6812063E
:101E700030D423681A69520602D5DA68520630D483
:101E800023681A69920602D5DA68920630D410BD2A
:101E9000FFF784FF2000FFF783FF97E72000FFF79D
:101EA0007DFF2000FFF77CFFA7E72000FFF776FF0C
:101EB0002000FFF775FFB5E72000FFF76FFF200058
:101EC000FFF76EFFC5E7022252421A61200000F0C0
:101ED000F9FCC7E7812252421A61200000F06DF838
:101EE000C7E7412252421A612000FFF75AFFC7E7B5
:101EF000212252421A61200000F05EF8C7E700007C
:101F000003681A4A904202D0194A904203D17022C3
:101F100093434A681343154A90420BD0144A9042A7
:101F200008D0144A904205D0134A904202D0134A76
:101F3000904203D1124A1340CA681343802293434C
:101F40004A69134303608B68C3620B688362074B63
:101F5000984205D0084B984202D0084B984201D1D4
:101F60000B690363012343617047C046002C0140A5
:101F700000040040002000400044014000480140AF
:101F8000FFFCFFFF70B5041E14D03D23C35C002B83
:101F90000AD03D2502236355211D2068FFF7B0FFBD
:101FA00001236355002070BD3C330022C254FFF76B
:101FB000E9FEEEE70120F6E77047704710B5040030
:101FC00083680269134342691343C269134301687A
:101FD0000A685C48024013430B60226853685A4900
:101FE0000B40E1680B435360A269236A1A432168DE
:101FF0008B685648034013438B60554B1A6B032381
:102000001340012B26D0002B05D0022B24D0032B0C
:1020100024D0102300E0002380221202E1699142C3
:102020001ED0022B00D16FE05ED9042B00D179E0E5
:10203000082B00D084E06368580880231B029C466C
:1020400060446168FEF760F823680004000CD86003
:1020500000202EE00423DFE70823DDE70223DBE78F
:10206000022B27D00FD9042B2FD0082B39D163682E
:10207000580880235B029C4660446168FEF744F880
:1020800083B200200CE0002B2BD1FFF735FA400083
:1020900063685B08C0186168FEF736F883B20020F9
:1020A0000F22190091435B10083A13400B4322683A
:1020B000D36010BD63685808264B9C466044616835
:1020C000FEF722F883B20020EAE7FFF72DF940007F
:1020D00063685B08C0186168FEF716F883B20020D9
:1020E000DEE701200023DBE7002B29D1FFF704FA0C
:1020F00063685B08C0186168FEF706F8236800048F
:10210000000CD8600020D4E763685808124B9C4646
:1021100060446168FDF7F8FF23680004000CD86094
:102120000020C6E7FFF700F963685B08C018616824
:10213000FDF7EAFF23680004000CD8600020B8E730
:102140000120B6E7F369FFFFFFCFFFFFFFF4FFFFBA
:10215000001002400024F40000127A00436ADB07FA
:1021600006D5026853682C490B40816A0B435360C3
:10217000436A9B0706D50268536828490B40C16A29
:102180000B435360436A5B0706D5026853682449D2
:102190000B40016B0B435360436A1B0706D5026873
:1021A000536820490B40416B0B435360436ADB0685
:1021B00006D5026893681C490B40816B0B43936002
:1021C000436A9B0606D50268936818490B40C16BA9
:1021D0000B439360436A5B060BD50268536814494E
:1021E0000B40016C0B43536080235B03026C9A42EB
:1021F0000AD0436A1B0606D5026853680D490B4096
:10220000816C0B4353607047026853680A490B4066
:10221000416C0B435360ECE7FFFFFDFFFFFFFEFF48
:10222000FFFFFBFFFF7FFFFFFFEFFFFFFFDFFFFF72
:10223000FFFFEFFFFFFFF7FFFFFF9FFF0023C366D6
:1022400020226921425401314254483283540020F3
:102250007047000010B5041E30D06923C35C002B0A
:1022600022D069232422E2542268136801218B437F
:1022700013602000FFF7A2FE012814D0636A002B30
:1022800018D1226853680E490B4053602268936846
:1022900008218B4393602268136807390B4313604E
:1022A0002000FFF7CBFF10BD68330022C25400F0BE
:1022B000B9FCD6E72000FFF751FFE2E70120F2E783
:1022C000FFF7FFFFF0B5C64600B506000C0017008B
:1022D0009846069D3368DB6923401B1B5A425341D5
:1022E000BB421ED16B1CF5D0002D05D0FEF7D0F8F7
:1022F0004346C01AA842EDD9326813680B490B4017
:10230000136032689368A331FF318B4393602023BD
:102310006922B3540132B35448330022F2540320EB
:1023200000E0002004BC9046F0BDC0465FFEFFFF09
:10233000F0B585B004000E0017001D006923C35CD2
:10234000202B59D100295AD0002A5AD080235B0172
:1023500082689A4213D06823E35C012B53D0682330
:102360000122E2540023E36669332032E254FEF78F
:102370008FF803905023E7520233E7520AE00369D3
:10238000002BE8D1CB07E6D5012036E03378226870
:10239000138501365223E35A9BB2002B1CD05222E4
:1023A000A35A013B9BB2A3520095039B00228021BC
:1023B0002000FFF787FF002827D180235B01A26858
:1023C0009A42E3D12369002BE0D13388DB05DB0D92
:1023D000226813850236DDE70095039B0022402129
:1023E0002000FFF76FFF002811D169232022E2545B
:1023F000013B0022E25400E0022005B0F0BD0120C4
:10240000FBE70120F9E70220F7E70320F5E70320C7
:10241000F3E710B590200821C005FEF721FD10BD9F
:1024200010B5902001220821C005FEF720FD10BD47
:1024300010B59024E405002208212000FEF717FDC6
:10244000002210212000FEF712FD002204212000AE
:10245000FEF70DFD10BD10B59024E40500221021FB
:102460002000FEF704FD002204212000FEF7FFFCFF
:10247000012208212000FEF7FAFC0320FEF70EF8E7
:1024800010BD10B59024E405002204212000FEF7C1
:10249000EEFC012210212000FEF7E9FC10BD000037
:1024A00010B5002202210248FEF7E1FC10BDC04633
:1024B0000004004810B5012202210248FEF7D7FCB3
:1024C00010BDC0460004004800B583B001A90870E3
:1024D0000A2301220248FFF721FA03B000BDC046DB
:1024E000F800002010B5FFF7DBFF002405E0154BD6
:1024F000185DFFF7E9FF0134E4B20A2CF7D9FFF7C2
:10250000D9FFFFF7CDFF2220FFF7DEFF002404E014
:10251000E720FFF7D9FF0134E4B2032CF8D9FFF725
:10252000C9FFFFF7BDFF2020FFF7CEFF002404E026
:102530000020FFF7C9FF0134E4B21F2CF8D9FFF7E0
:10254000B9FF10BD0439000870B505000C00FFF795
:10255000A7FF2000FFF7B8FF002407E0E3002800F2
:10256000D840C0B2FFF7B0FF0134E4B2032CF5D974
:10257000FFF7A0FF70BD000010B584B003AC0A23C4
:102580000093093B2200FF210248FFF7A9FA2078B7
:1025900004B010BDF800002010B5FFF781FFFFF771
:1025A000EBFF0400FFF786FF200010BD10B5FFF71A
:1025B000F3FF2023184010BD10B50521FFF7C4FF1D
:1025C00010BDF0B583B001900D0017001E0002E0B1
:1025D0000120FDF763FFFFF7E9FF041EF8D1222178
:1025E0000198FFF7B1FFFFF714FF00280DD09020EE
:1025F00001220421C005FEF73AFC002D14D0FFF79C
:102600004FFF2020FFF760FF0AE0FFF724FF0320C1
:10261000FDF744FFEBE7285DFFF756FF0134E4B216
:10262000BC42F8D3FFF746FF9024E40501221021B5
:102630002000FEF71CFC0120FDF730FF00221021D6
:102640002000FEF714FC012E04D0002E08D001203B
:1026500003B0F0BD0120FDF721FFFFF712FFF6E701
:102660000120FDF71BFFFFF7F6FEF0E710B5FFF7BF
:10267000D7FEFFF706FF10BD10B5FFF71BFFFFF7F2
:10268000D7FEFFF7E8FEFFF7F1FFFFF72BFF10BDC6
:10269000F8B507000E00202900D92026FFF700FF1B
:1026A0002420FFF711FF002405E03D19FFF764FF28
:1026B00028700134E4B2A642F7D8F8BD10B5FFF790
:1026C000B7FE10BD10B5FFF7A4FE0400FFF7C3FE70
:1026D000FFF7A6FE002C00D010BD0320FDF7DEFEA4
:1026E000FAE770B50600FFF7DBFE1020FFF7ECFEFF
:1026F000002405E03519FFF73FFF28700134E4B2EC
:10270000092CF7D9FFF7D6FE70BD000000B585B0E3
:1027100019481A4B036080231B0643600023836023
:10272000C36001220261042141618361C2610362CD
:102730004362C221FF318162C36203634263FDF7DA
:102740007DFF00280ED11123019380235B010293AA
:102750000223039301A90848FEF736F9002806D1A1
:1027600005B000BD4821064800F0B8F8EBE752215B
:10277000034800F0B3F8F3E7AC0000200024014068
:102780009039000882B00268074B9A4201D002B02B
:102790007047064A916980208000014391619369E6
:1027A00003400193019BF2E7002401400010024026
:1027B0000268054B9A4200D07047044A9369044965
:1027C0000B409361F8E7C04600240140001002402E
:1027D000FFFDFFFFF0B589B0364B59698020C0037B
:1027E000014359615A6902400092009A5969802058
:1027F0008002014359615A6902400192019A5A6963
:102800008021C9020A435A615B690B400293029B13
:10281000294F002203213800FEF729FB9025ED0502
:1028200000221D212800FEF722FB0122022123485D
:10283000FEF71DFB03230393012404940026059651
:10284000069603A93800FEF7C7F903940494059689
:10285000069603A92800FEF7BFF9022703970496FE
:10286000059703A92800FEF7B7F91C2303930494E6
:102870000594069603A92800FEF7AEF90397049481
:102880000594069603A90D48FEF7A6F9C023DB01BF
:1028900003930B4B0493059403A92800FEF79CF9BE
:1028A000002201210720FEF72BF90720FEF758F937
:1028B00009B0F0BD001002400014004800040048B8
:1028C0000000211010B50268034B9A4200D010BDE1
:1028D000FDF7D6FDFBE7C046002C0140FEE70000F7
:1028E00000B595B00223089301220B920F320C928F
:1028F000109300231193A02292031292139308A81D
:10290000FEF7E8FA002828D107230493053B059336
:10291000002306930793012104A8FEF73DFD00283C
:102920001FD101230093002302936846FEF710FE97
:1029300000281AD1FEF7DAFDFA218900FDF7E4FB41
:10294000FEF718F90420FEF731F9012000220021DA
:102950004042FEF7D5F815B000BD92210548FFF7BB
:10296000BDFF9F210348FFF7B9FFA6210148FFF7EC
:10297000B5FFC046A039000810B5FDF771FDFFF79F
:10298000AFFFFFF727FF00F007F8FFF7BFFE00F0EB
:1029900027F9FDF77DFCFEE710B51248124B0360E6
:1029A00082235B00436000238360E022D200C26088
:1029B00003614361802292008261F13AFF3AC26171
:1029C000036243628362093AC2620363083343636A
:1029D000FEF728FF002800D110BD47210348FFF76C
:1029E0007DFFF9E7F800002000300140B039000811
:1029F00000B587B002680F4B9A4201D007B000BD06
:102A00000D4A91698020400101439161936903401F
:102A10000093009BE0230193DE3B0293002303938A
:102A2000032204920593902001A9C005FEF7D4F873
:102A3000E4E7C046003001400010024010B50268D3
:102A4000074B9A4200D010BD064A936906490B40D5
:102A500093619020E021C005FEF784F9F3E7C046BA
:102A60000030014000100240FFEFFFFF00B583B0CF
:102A7000124B996901221143996199690A400092A8
:102A8000009ADA69802149050A43DA61DB690B4063
:102A90000193019B0520002200214042FEF730F8FF
:102AA0000220002200214042FEF72AF801200022E5
:102AB00000214042FEF724F803B000BD00100240A0
:102AC00000B587B0010000220D20FEF719F80D2097
:102AD000FEF746F8134A9169802000010143916195
:102AE000936903400093009B01A902A8FEF714FD1F
:102AF000FEF702FD0C49FDF707FB431E0B480C4A8D
:102B000002600C4AC2604360002303618360FFF7E8
:102B100039FA002802D0012007B000BD0348FFF7B2
:102B200032F9F9E70010024040420F005C0100203A
:102B3000002C0140E7030000034B1A68D368012111
:102B40000B43D3607047C0465C0100207047FEE72E
:102B50007047704710B5FEF73AF810BD10B58020E9
:102B60008001FEF78BF98020C001FEF787F910BDC8
:102B700010B50248FFF716F910BDC0465C010020F1
:102B8000114B1A6801210A431A605A680F48024023
:102B90005A601A680E4802401A601A680D480240CE
:102BA0001A605A680C4802405A60DA6A0F20824361
:102BB000DA621A6B094802401A635A6B8A435A63F5
:102BC00000229A607047C046001002400CB8FF080F
:102BD000FFFFF6FEFFFFFBFFFFFFC0FFECFEFFFF66
:102BE00010B50D480D4B0360E1235B0243600023E9
:102BF0008360C36003610C2242618361C36103622D
:102C00004362FFF727FB002800D110BD4421044890
:102C1000FFF764FEF9E7C0469C0100200038014040
:102C2000C039000800B587B00268104B9A4201D045
:102C300007B000BD0E4A91698020C0010143916137
:102C4000936903400093009BC023DB0001930223A0
:102C500002930023039303330493023B05939020D4
:102C600001A9C005FDF7B8FFE2E7C0460038014002
:102C70000010024000B591B0FFF75EFF02230493FD
:102C8000012207920F3208920C9300230D93A02289
:102C900092030E920F9304A8FEF71CF900282AD184
:102CA00007230093053B0193002302930393012123
:102CB0006846FEF771FB002822D1FEF717FCFA21C7
:102CC0008900FDF721FAFDF755FF0420FDF76EFF9F
:102CD0000120002200214042FDF712FFFDF7C0FB5A
:102CE000FFF778FDFFF758FEFFF710FD0748FFF7E5
:102CF00049FD11B000BD2E210548FFF7EFFDCFE7DC
:102D00003B210348FFF7EAFDD7E7C046AC000020AF
:102D1000D039000830B587B01548FEF7E9FD1548F1
:102D2000FDF74AFDFF23019301250295002303933C
:102D30009024E40501A92000FDF74EFF0223019332
:102D4000029503930C4D01A92800FDF745FF0022D1
:102D500002212800FEF78BF8002208212000FEF750
:102D600086F801210120FEF797F807B030BDC04674
:102D7000F8000020AC000020000400480FB400B5AB
:102D80009BB01CAB04CB0093642101A800F09CF91C
:102D900082B2FA239B0001A90348FFF7C9FA1BB0CE
:102DA00008BC04B01847C0469C010020F0B5C646D8
:102DB00000B59AB001900E0012AC1E2200214220F4
:102DC00002AB9C46604400F04BF98223237066708E
:102DD000803BA370364A1378637101331370354812
:102DE000FFF7CCFFFDF754FB80460024002735E0B9
:102DF00039003148FFF7C2FF002D07D14F2E0AD806
:102E00000120FDF74BFB0136F6B2F7E7202102A8BF
:102E1000FFF73EFCF2E70AAE1E220021222002ABA1
:102E20009C46604400F01CF94123337002337370F8
:102E30000833B3702300012101E00133DBB21F2B03
:102E400007D802AAD05C0AAAD25C9042F5D0210031
:102E5000F3E7002900D00C000137FFB20E2F22D873
:102E6000002C20D1FDF714FB4346C01A020A12AB16
:102E7000DA7018719F710123202212A90198FFF7BF
:102E8000A0FB0028F7D00120FDF708FB2600FFF784
:102E90008DFB051EACD14F2EAAD80120FDF7FEFAFE
:102EA0000136F6B2F3E720001AB004BC9046F0BD3C
:102EB00010000020E8390008F4390008F0B5C646D3
:102EC00000B59AB001900F001600984612AC1A2275
:102ED0000021462002AB9C46604400F0C1F88223EA
:102EE000237043466370A7703312E3702671324A31
:102EF00013786371013313703048FFF73FFF0024EC
:102F0000002735E039002E48FFF738FF002D07D1A4
:102F10004F2E0AD80120FDF7C1FA0136F6B2F7E7C5
:102F2000202102A8FFF7B4FBF2E70AAE1E2200211F
:102F3000222002AB9C46604400F092F8412333709B
:102F4000023373700833B3702300012001E00133B2
:102F5000DBB21F2B07D802AAD15C0AAAD25C91422D
:102F6000F5D02000F3E7002800D004000137FFB2BD
:102F70000E2F1BD8002C19D112AB9F7101232022D8
:102F800012A90198FFF71DFB0028F7D00120FDF7DB
:102F900085FA2600FFF70AFB051EB3D14F2EB1D8E4
:102FA0000120FDF77BFA0136F6B2F3E720001AB0F4
:102FB00004BC9046F0BDC04610000020E83900086F
:102FC000F43900080D4885460D480E490E4A002385
:102FD00002E0D458C4500433C4188C42F9D30B4ACD
:102FE0000B4C002301E013600432A242FBD3FFF735
:102FF000C7FD00F011F8FFF7BFFCFEE7001000204E
:103000000000002078000020403A000878000020EE
:1030100010020020FEE7000070B500260C4D0D4C9C
:10302000641BA410A64209D1002600F04FFC0A4DF3
:103030000A4C641BA410A64205D170BDB300EB5826
:1030400098470136EEE7B300EB5898470136F2E7B0
:10305000343A0008343A0008343A00083C3A000890
:1030600003001218934200D1704719700133F9E739
:1030700030B514009BB005001A00002C05DA8B2334
:103080000360012040421BB030BD822368469B0094
:1030900083810023009104919C4200D0631E02931F
:1030A0000593012369465B42CB8128001E9B00F0FB
:1030B00079F8431C01DA8B232B60002CE3D000232A
:1030C000009A1370DFE7000007B5009313000A00B1
:1030D000010002480068FFF7CBFF0EBD140000207E
:1030E000F0B58E6885B007000C00039201939E42F4
:1030F0003CD890238A89DB001A4234D00325096921
:1031000023685B1A0293636902985D43EB0F5D19B4
:10311000019B6D1001331B18AB4200D91D005305F4
:1031200032D52900380000F023FB061E09D10C23FC
:103130003B6040230120A28940421343A38105B094
:10314000F0BD029A216900F0ACFAA389144A1A4032
:1031500080231343A381029B2661F61826606561D4
:10316000019EED1AA560019B9E4200D9019E32008E
:103170000399206800F09EFAA36800209B1BA360BF
:1031800023689E192660DAE72A00380000F04EFB1B
:10319000061EE0D12169380000F0A0FAC7E7C0465A
:1031A0007FFBFFFFF0B59FB0029005938B890F0066
:1031B00016001B0611D50B69002B0ED1402100F023
:1031C000D7FA38603861002805D10C23029A0138FB
:1031D00013601FB0F0BD40237B61002306AC636128
:1031E000203363761033A37635002B78002B01D083
:1031F000252B46D1AB1B04930CD03200390002982A
:10320000FFF76EFF431C00D1AEE06269049B944659
:10321000634463612B78002B00D1A5E001220023D9
:103220005242626002A9543252186E1C2360E3605D
:10323000A3601370A36531780522544800F026FA84
:10324000751C00281FD12268D30604D5532302A978
:103250005B1820211970130704D5532302A95B18AA
:103260002B21197033782A2B16D0350000210A2023
:10327000E3682A786E1C303A092A4ED9002918D002
:1032800010E00135B1E7414B2268C01A01238340A9
:10329000134323602E00CEE7059B191D1B68059183
:1032A000002B01DB099304E05B42E360022313433C
:1032B00023602B782E2B0AD16B782A2B35D1059BD6
:1032C00002351A1D1B680592002B2BDB0793304E2D
:1032D00029780322300000F0D9F9002806D04023D5
:1032E000801B83402268013513432360297806221E
:1032F00028486E1C217600F0C9F900283CD0264BE6
:10330000002B25D10722059B0733934308330593F0
:103310006369039A9B18636166E7434301219B1825
:103320003500A6E701235B42D0E700230A201A00FC
:103330000135636029786E1C3039092903D9002BC7
:10334000C5D00792C3E74243012352183500F1E785
:1033500005AB00933A00114B2100029800E000BF3A
:103360000390039B0133D3D1BB890B985B0600D438
:103370002FE7012040422CE705AB00933A00074BB2
:103380002100029800F07AF8EAE7C046003A000807
:10339000063A00080A3A000800000000E130000880
:1033A000F7B5150001938A680B6900900C009342F1
:1033B00000DA130022002B6043321278002A01D079
:1033C00001332B6023689B0602D52B6802332B60E8
:1033D000062723681F4027D0230043331B785A1E3B
:1033E00093412268920630D422000199433200981A
:1033F000089EB047431C25D0062320682A68E16850
:1034000003400025042B03D18D1AEB43DB171D402D
:10341000A3682269934201DD9B1AED180027BD4283
:1034200020D1002010E00137E3682A689B1ABB42D4
:10343000D2DD22000123193201990098089EB0477D
:10344000431CF0D101204042FEBD3020E118433141
:10345000087021005A1C45310978A2184332023302
:103460001170C1E7220001231A3201990098089EC9
:10347000B047431CE6D00137D1E70000F0B589B072
:1034800004920A0043320593039002920A7E0C00D4
:103490000E9B6E2A00D186E01FD8632A33D008D84D
:1034A000002A00D18CE0582A4DD0250042352A70E0
:1034B00030E0642A01D0692AF7D1196825680A1D0D
:1034C000280629D508681A60002803DA2D23029AF5
:1034D000404213706B4E0A274FE0732A74D008D80D
:1034E0006F2A1FD0702AE0D1202209680A43226087
:1034F00003E0752A16D0782AD7D1220078214532E8
:103500001170614E22E025001A684235111D1960C4
:1035100013682B70012365E008681A606906D3D52B
:1035200000B2D1E719682568081D186008682E06E2
:1035300005D5544E08276F2A1BD00A2719E06D06BF
:10354000F7D580B2F5E745314E4E0A70186822680B
:10355000011D00681960150621D5D30702D5202367
:103560001A4322601027002803D1202322689A439F
:1035700022602300002243331A706368A360002B8B
:1035800058DB0422216891432160002854D1029D18
:10359000002B5AD02500337842352B7055E0550664
:1035A000DBD580B2D9E71A680D68101D496918602B
:1035B00013682E0601D5196002E06D06FBD519804F
:1035C0000023029D23614FE01A68111D19601568E0
:1035D00000216268280000F059F8002801D0401B43
:1035E0006060636823610023029A13703CE02369E2
:1035F0002A0004990398059DA847431C3ED02368E0
:103600009B0715D4079BE068984239DA180037E029
:1036100022000123193204990398059EB047431CE8
:103620002CD00135E368079A9B1AAB42F0DCE9E73E
:103630000025F7E70028ADD0029D3900FCF7EAFD30
:10364000735C013D2B700028F7D1082F09D1236846
:10365000DB0706D563682269934202DC3023013D13
:103660002B70029B5B1B2361059B07AA0093210023
:10367000049B0398FFF794FE431CB8D101204042FD
:1036800009B0F0BD113A0008223A0008C9B2821808
:10369000904201D10020704703788B42FBD001306B
:1036A000F6E7002310B59A4200D110BDCC5CC4549B
:1036B0000133F8E710B5884202D98B18984203D33A
:1036C000002307E08B5C8354013AFBD210BDCC5C35
:1036D000C45401339A42FAD1F8E7000070B50500EE
:1036E000002910D00C1F2368002B00DAE4182800F2
:1036F00000F0D4F81D4A1368002B05D163601460F4
:10370000280000F0CCF870BDA34209D921686018E8
:103710008342F3D118685B6841182160EEE713001B
:103720005A68002A01D0A242F9D919685818A04253
:103730000BD120680918581819608242E0D110682E
:103740005268411819605A60DAE7A04202D90C2386
:103750002B60D5E721686018824203D11068526857
:103760004118216062605C60CAE7C0469C0000208E
:10377000032370B5CD1C9D43083506000C2D1ED2C9
:103780000C25A9421DD8300000F088F8254A14689D
:103790002100002919D1244C2368002B03D13000CB
:1037A00000F06AF820602900300000F065F8431C42
:1037B0002BD10C233000336000F071F803E0002DB2
:1037C000DFDA0C233360002070BD0B685B1B19D45B
:1037D0000B2B03D90B60CC18256003E04B688C429F
:1037E0000DD11360300000F05AF8200007220B3092
:1037F000231D9043C31AE7D05A42E250E4E76360C6
:103800000C00EFE70C004968C3E70323C41C9C438A
:10381000A042E1D0211A300000F02EF8431CDBD189
:10382000C7E7C0469C000020A0000020F8B50700B4
:103830000D001600002905D11100FFF799FF0400C3
:103840002000F8BD002A03D1FFF748FF3400F7E756
:1038500000F026F82C00B042F2D231003800FFF719
:1038600087FF041EECD029003200FFF71AFF290061
:103870003800FFF733FFE3E7002370B5064C05007F
:103880000800236000F014F8431C03D12368002BC8
:1038900000D02B6070BDC0460C02002070477047FE
:1038A0000B1F1B68181F002B01DA0B58C01870473C
:1038B000044A1368002B00D1034B1818106018003D
:1038C0007047C046A400002010020020F8B5C04692
:1038D000F8BC08BC9E467047F8B5C046F8BC08BCAA
:0438E0009E46704749
:1038E40002030405060708090A0B0C0D0E0F10103D
:1038F4000102030405060708090A0B0C0D0E0F103C
:1039040000730E440808E7E7E7E7D800000000006A
:10391400000000000102030406070809000000007B
:1039240001020304427574746F6E2025750A000049
:103934004368616E6E656C3A202575004672657148
:103944003A202575000000004B487A004175746FD9
:103954002072657472616E736D69743A2025750AFC
:10396400000000004C6F7720706F7765722052580A
:103974003A2025750A000000566F6C746167652053
:103984002569000053656E640A0000002E2E2F5333
:1039940072632F6164632E63000000002E2E2F5388
:1039A40072632F6D61696E2E630000002E2E2F53FB
:1039B40072632F7370692E63000000002E2E2F5344
:1039C40072632F75736172742E6300002E2E2F5351
:1039D400797374656D2F53797374656D2E6370708C
:1039E4000000000053656E64696E670A0000000001
:1039F400776169742025750A00000000232D302B9F
:103A04002000686C4C0065666745464700303132DB
:103A14003334353637383941424344454600303132
:103A24003233343536373839616263646566000091
:083A3400E9000008510400083C
:043A3C00C1000008BD
:103A400001000000010101010F00000000127A00D6
:103A5000F500000018000020000000000000000039
:103A60000000000000000000000000000000000056
:103A70000000000000000000000000000000000046
:103A80000000000000000000000000000000000036
:103A90000000000000000000000000000000000026
:103AA0000000000000000000000000000000000016
:083AB00000000000000000000E
:0400000508002FC5FB
:00000001FF
